:0400000081EF00F09C
:10000800EC4AEC4AEC4AEC4A4000EC4A4000EC4A24
:10001800EC4AEC4AEC4AEC4AEC4AEC4AEC4AEC4A28
:10002800EC4A400040004000EC4AEC4AEC4AEC4AFA
:10003800EC4AEC4AEC4A974AEC4AEC4AEC4AEC4A5D
:10004800EC4AEC4AEC4AEC4A40004000EC4AEC4AE4
:10005800EC4AEC4AEC4A4000EC4AEC4AEC4AEC4ADE
:10006800EC4AEC4AEC4AEC4AEC4AEC4AEC4AEC4AD8
:10007800EC4AEC4AEC4AEC4A4000EC4AEC4AEC4ABE
:10008800EC4AEC4AEC4AEC4AEC4AEC4AEC4AEC4AB8
:10009800EC4AEC4AEC4AEC4A4000EC4A400040008A
:1000A800EC4AEC4AEC4AEC4AEC4AEC4AEC4AEC4A98
:1000B800EC4AEC4AEC4AEC4AEC4AEC4AEC4AEC4A88
:1000C800EC4AEC4AEC4AEC4AEC4AEC4AEC4AEC4A78
:1000D800EC4AEC4AEC4AEC4AEC4AEC4AEC4AEC4A68
:1000E8004000EC4AEC4AEC4A400040004000400026
:0E00F800EC4AEC4AEC4AEC4AFF009DEF93F014
:10FCA200005265616420636F64652066726F6D2027
:10FCB200383734382F3837343920616E6420737402
:10FCC2006F726520697420696E206275666665725E
:10FCD200005B535D2053776974636820746F204919
:10FCE2006E697469616C20766F6C746167652C2033
:10FCF2005B455D2045786974203A200050726F6739
:10FD020072616D6D696E6720766F6C7461676520D4
:10FD12006973206F757470757420617320666F6CDF
:10FD22006C6F77730045412837293D3138562C20B6
:10FD320050524F47283235293D3138562C205644EF
:10FD420044283236293D323156005752543837341E
:10FD520039203A20496E74656C20383734382F3890
:10FD62003734392070726F6772616D6D6572004948
:10FD72006E697469616C20766F6C74616765206965
:10FD820073206F757470757420617320666F6C6C6C
:10FD92006F77730041646472657373202530345841
:10FDA2002E20577269746520253032582C205265F6
:10FDB2006164202530325800577269746520636F80
:10FDC200646520696E2062756666657220746F20B4
:10FDD200383734382F383734390045412837293DF0
:10FDE20035562C2050524F47283235293D30562C5B
:10FDF20020564444283236293D35560052656D6FEF
:10FE02007665206465766963652066726F6D20741D
:10FE12006865205A494620736F636B6574004C6FA6
:10FE22006164204845582066726F6D207465726D5A
:10FE3200696E616C20746F2062756666657200433C
:10FE42006F7079206275696C742D696E2044454D1E
:10FE52004F20746F20627566666572005B4E5D208E
:10FE62004E65787420706167652C205B455D204586
:10FE7200786974203A20004D6F756E74206465763F
:10FE820069636520696E205A494620736F636B650A
:10FE92007400566F6C746167652061646A7573746F
:10FEA2006D656E7420636865636B00436F646520E3
:10FEB20069732073746F72656420696E206275665F
:10FEC200666572005B385D20383734382C205B3928
:10FED2005D2038373439203A2000546F2065786924
:10FEE200742C207072657373205B455D203A20008C
:10FEF200577269746520756E636F6D706C65746599
:10FF020000436F64652073697A653A20253034585E
:10FF12000053656C656374207461736B203A200032
:10FF2200577269746520636F6D706C6574650052F9
:10FF320065616420636F6D706C657465004C6F6100
:10FF42006420636F6D706C65746500436F70792017
:10FF5200636F6D706C6574650056657269667920B1
:10FF62006572726F720044756D70206275666665A7
:10FF72007200476F6F64206A6F62001B5B324A1B1C
:10FF82005B4800286E756C6C2900414452533A203C
:10FF920000253034583A20004C5243445756005BF7
:10FFA200435D202573005B445D202573005B4C5D3F
:10FFB200202573005B525D202573005B565D202572
:10FFC20073005B575D2025730031303025250041D9
:10FFD2005343494900253268687800526561647963
:10FFE200002B2558200068685800253478000D0A37
:0DFFF200003839004E45005345000D000059
:020000040001F9
:10000000240000930000002455B820B000FA141416
:1000100060E60D93371793FA61A1E61EC91193FAB2
:10002000141461A1F62AC9F107A193FA6157A1E658
:1000300037C923016157A193FA1414039A6157A198
:10004000F648C923996157A193B825B921BF04FE89
:10005000ADFD67ADE658F0A11819EF5193B821B97D
:1000600029BA24BB77BF041472530F6AE3A018EFB8
:100070006793FF53016BB3797CF14793F11993B800
:100080002BB929BBD9BE00BF04FE77AE1472530F43
:10009000C696FE4308AEEF89B825B929BA04BB77E6
:1000A00014651449BA041409BF04B921FEADFD67F3
:1000B000ADE6B5B1FF19EFAEBA081409B825B92BF2
:1000C000BA14BB7714651449BA041409B829B92BBA
:1000D000F1A01819F1A0145D93DBE0F0D1AA4793C9
:1000E000FA18199300000000000000000000000052
:1000F0000000000000000000000000000000000000
:100100009A0F6500D5B820BF00C52555B929B1871C
:1001100019B149145DBA2D1409B92BB10019B100F8
:1001200014CC1409B92CBA052638BA014640344813
:10013000142B147FBA2D2422142B14CCBA012422A0
:10014000143814CCBA052422F15301C65123028D70
:1001500093230D9D93D523035FAF965D10B921695D
:10016000A99A0FF139FF0300E33A4203CC621F93CF
:10017000000000000000000000000000000000007F
:10018000000000000000000000000000000000006F
:10019000000000000000000000000000000000005F
:1001A000000000000000000000000000000000004F
:1001B000000000000000000000000000000000003F
:1001C000000000000000000000000000000000002F
:1001D000000000000000000000000000000000001F
:1001E000000000000000000000000000000000000F
:1001F00000000000000000000000000000000000FF
:1002000000000000000000000000000000000000EE
:1002100000000000000000000000000000000000DE
:1002200000000000000000000000000000000000CE
:1002300000000000000000000000000000000000BE
:1002400000000000000000000000000000000000AE
:10025000000000000000000000000000000000009E
:10026000000000000000000000000000000000008E
:10027000000000000000000000000000000000007E
:10028000000000000000000000000000000000006E
:10029000000000000000000000000000000000005E
:1002A000000000000000000000000000000000004E
:1002B000000000000000000000000000000000003E
:1002C000000000000000000000000000000000002E
:1002D000000000000000000000000000000000001E
:1002E000000000000000000000000000000000000E
:1002F00000000000000000000000000000000000FE
:10030000804020108FBF4F2F3F2F0FBF0F2F1F0F89
:10031000CF0F4F5FE3F7E6E6F2EAEAE7E2E2E2FA5E
:10032000EBFAEAEA12B72A2687464237020603C2E8
:100330005AA24A4B0000000000000000000000002C
:1003400000000000000000000000000000000000AD
:10035000000000000000000000000000000000009D
:10036000000000000000000000000000000000008D
:10037000000000000000000000000000000000007D
:10080000B5C5D9F4B6C5DAF4DEC4F6F4DDC4F7F440
:10081000000EF86E0800F550250AD8A468D1B5C5B9
:10082000D9F4B6C5DAF4DE2A000EDD22000E686FB8
:10083000000E676F67516811D8B402D0010E01D065
:10084000000E706FB5C5D9F4B6C5DAF4DEC401F593
:10085000DDC402F5BBEC8FF001C567F502C568F594
:1008600007D0B5C5D9F4B6C5DAF4DE2A000EDD220C
:10087000B5C5D9F4B6C5DAF4DEC4F6F4DDC4F7F4D0
:10088000000EF86E0800F5C4B9F5D00EB927090EB0
:10089000B965E7D7B5C5D9F4B6C5DAF4DEC401F554
:1008A000DDC402F5D90E036EFF0E046E000E066E57
:1008B000030E056ECFEC91F001500210D8B416D0A3
:1008C000B5C5D9F4B6C5DAF4DEC401F5DDC402F568
:1008D000E80E036EFF0E046E000E066E030E056E2C
:1008E000CFEC91F001500210D8A449D0030EB5C549
:1008F000D9F4B6C5DAF4DE26000EDD22B3C549F51B
:10090000B4C54AF5BD0E4B6E050E4C6E67EC89F012
:1009100049C5C5F54AC5C6F5C6BF2CD0C65103E1C9
:10092000C505D8A027D0B7C5D9F4B8C5DAF4DFC457
:10093000B9F5020EDE26DFC4BAF5000EDD22B9C518
:10094000D9F4BAC5DAF4DEC4BBF5DDC4BCF5BBC569
:10095000F6F4BCC5F7F4000EF86E250EF76404D06B
:10096000BDC5F5F40C0006D0F6C4E1F4F7C4E2F41A
:10097000BDC5E7F4C5C5B3F5C6C5B4F51200B5C528
:10098000D9F4B6C5DAF4DEC4F6F4DDC4F7F4000E2B
:10099000F86E0800F550780AD8B40FD0B5C5D9F470
:1009A000B6C5DAF4DEC4F6F4DDC4F7F4000EF86E72
:1009B0000800F550580AD8A449D0B5C5D9F4B6C531
:1009C000DAF4DE2A000EDD22B3C549F5B4C54AF5D6
:1009D000BD0E4B6E050E4C6E67EC89F049C5C5F532
:1009E0004AC5C6F5C6BFC6D7C65103E1C505D8A0DE
:1009F000C1D7B7C5D9F4B8C5DAF4DFC4B9F5020E6A
:100A0000DE26DFC4BAF5000EDD22B9C5D9F4BAC5B9
:100A1000DAF4DEC4BBF5DDC4BCF5BBC5F6F4BCC579
:100A2000F7F4000EF86E250EF76407D0BDC5F5F497
:100A30000D00BEC5F5F40C0008D0F6C4E1F4F7C40F
:100A4000E2F4BDC5E6F4BEC5E7F494D7B5C5D9F464
:100A5000B6C5DAF4DEC4F6F4DDC4F7F4000EF86EC1
:100A60000800F550250AD8A43AD0B3C50CF5B4C592
:100A70000DF5A5EC94F0B3C503F5B4C504F536EC5B
:100A800090F003C5C7F504C5C8F5250E0501C719C3
:100A9000C811D8A40FD0B5C5D9F4B6C5DAF4DE2A8A
:100AA000000EDD22634B642B000E0501B46F000EB7
:100AB000B36F1200C72903E1C829D8B40AD0C7C54B
:100AC00001F5C8C502F5B3C503F5B4C504F513ECCB
:100AD00093F0FF0E0501B46FFE0EB36F1200B5C5A3
:100AE000D9F4B6C5DAF4DE2A000EDD22DDD7B3C5AF
:100AF00003F5B4C504F536EC90F003C5C7F504C59D
:100B0000C8F5B5C5D9F4B6C5DAF4DEC4F6F4DDC46B
:100B1000F7F4000EF86E0800F550200AD8B413D090
:100B2000B5C5D9F4B6C5DAF4DEC4F6F4DDC4F7F41D
:100B3000000EF86E0800F5C4B9F5F70E0501B927E7
:100B4000050EB96153D0B5C5D9F4B6C5DAF4DE2ABD
:100B5000000EDD22B5C5D9F4B6C5DAF4DEC4F6F46C
:100B6000DDC4F7F4000EF86E0800F550200AD8B482
:100B7000EAD7B5C5D9F4B6C5DAF4DEC4F6F4DDC4F7
:100B8000F7F4000EF86E0800F5C4B9F5F70E05018C
:100B9000B927040EB965D7D70CD0634B642BB3C506
:100BA00003F5B4C504F536EC90F003C5C7F504C5EC
:100BB000C8F5200E0501C719C811D8B4EED7C7C5AE
:100BC000B9F5F70EB927040EB965E7D7C72903E1D0
:100BD000C829D8B469D7C7C501F5C8C502F5B3C5DA
:100BE00003F5B4C504F513EC93F05ED7B5C5D9F49D
:100BF000B6C5DAF4DEC4F6F4DDC4F7F4000EF86E20
:100C00000800F550B96FBA6BC751B91904E1C85162
:100C1000BA19D8B440D7C72902E1C829D8A44FD7F8
:100C2000B369B46912003D6A21EE3EF1070EDE6A37
:100C3000E806FDE219C546F51AC547F51EBE06D001
:100C40001E5008E1250E1D5CD8B004D01D041E10F6
:100C5000D8A406D0000E05016A6F160E696FB8D1D0
:100C600046504710D8B4B4D146C5D9F447C5DAF4D4
:100C7000DF50D8B4ADD102D0464A472A46C5D9F490
:100C800047C5DAF4DF50486E200E4818D8B4F4D7C0
:100C900048C521F5F70E2126040E2164EDD72D0E4F
:100CA0004818D8A40AD03D80464A472A46C5D9F4F8
:100CB00047C5DAF4DF50486E04D02B0E4818D8B47C
:100CC000F3D7300E4818D8A464D0464A472A46C500
:100CD000D9F447C5DAF4DF50486E1D501E10D8B461
:100CE00005D0100E1D181E10D8A44AD0780E481832
:100CF000D8B404D0580E4818D8A442D0000E1E6EA6
:100D0000100E1D6E464A472A46C5D9F447C5DAF487
:100D1000DF50486E48C521F5200E21129F0E212676
:100D20001A0E216018D048C521F59F0E2126190EF4
:100D3000216403D048C531F506D048C521F55F0EC2
:100D400021162150316E326A31C521F5C90E212696
:100D5000100E216010D048C521F5200E21129F0EE3
:100D60002126190E216415D048C521F5D00E212663
:100D7000090E21640ED03D844606D8A0470628D12E
:100D80003D841D501E10D8A404D0000E1E6E080E07
:100D90001D6E1D501E10D8A404D0000E1E6E0A0E2B
:100DA0001D6E1F50D8B423D03DB010D0FF0E356E4D
:100DB000FF0E366EFF0E376EFF0E386EFF0E396E69
:100DC000FF0E3A6EFF0E3B6E7F0E0FD0000E356E9B
:100DD000000E366E000E376E000E386E000E396E45
:100DE000000E3A6E000E3B6E800E3C6E08D03568E9
:100DF00036683768386839683A683B683C683EC589
:100E000029F53FC52AF540C52BF541C52CF542C54E
:100E10002DF543C52EF544C52FF545C530F548C51C
:100E200021F5200E21129F0E21261A0E216015D0C9
:100E300048C521F59F0E2126190E216403D048C50F
:100E400033F506D048C521F55F0E21162150336ECB
:100E5000346A3350C90F486E09D048C521F5D00E09
:100E600021260A0E21609FD0300E485E4850216E28
:100E7000226A1D50215C2250800A236E1E50800A77
:100E80002358D8B090D03DB284D01DC501F51EC501
:100E900002F5000E02BEFF0E036E046E056E066EB6
:100EA000076E086E3EC509F53FC50AF540C50BF54E
:100EB00041C50CF542C50DF543C50EF544C50FF50A
:100EC00045C510F558EC93F001C521F502C522F592
:100ED00003C523F504C524F505C525F506C526F586
:100EE00007C527F508C528F5485021243E6E000E99
:100EF00022203F6E000E2320406E000E2420416E03
:100F0000000E2520426E000E2620436E000E272084
:100F1000446E000E2820456E29503E5C2A503F58F2
:100F20002B5040582C5041582D5042582E50435869
:100F30002F50445830504558D8A015D01F50D8B421
:100F400028D03E50355C3F503658405037584150BD
:100F500038584250395843503A5844503B584550FD
:100F60003C58D8B016D035C53EF536C53FF537C527
:100F700040F538C541F539C542F53AC543F53BC59D
:100F800044F53CC545F5000E05016A6F220E696FF8
:100F90003D82464A472A46C5D9F447C5DAF4DF50B0
:100FA000486E3D842CD73D50030BE806D8A410D0E2
:100FB000451E441E431E421E411E401E3F1E3E6CE7
:100FC000000E3F2240224122422243224422452257
:100FD0001B501C10D8B40ED03DB404D019C546F532
:100FE0001AC547F51BC5D9F41CC5DAF446C5DEF4AD
:100FF00047C5DDF43EC519F53FC51AF540C51BF5DB
:1010000041C51CF542C51DF543C51EF544C51FF578
:1010100045C520F512002AC5D9F42BC5DAF4DEC483
:10102000F6F4DDC4F7F4000EF86E0800F550250A5A
:10103000D8A438D12AC5D9F42BC5DAF4DE2A000E9B
:10104000DD22000E05016C6F000E6B6F6BC55FF546
:101050006D696E69366A1CD05F822AC5D9F42BC5CA
:10106000DAF4DE2A000EDD2213D0010E366E10D027
:101070002AC5D9F42BC5DAF4DEC4F6F4DDC4F7F4DE
:10108000000EF86E0800F550300AD8B4E5D7EDD759
:101090003650D8B4EDD72AC501F52BC502F52CC5BD
:1010A00003F52DC504F574EC91F001C56BF502C58F
:1010B0006CF505016CAF05D05F806B6D6C1FD8B00F
:1010C0006C2B2AC5D9F42BC5DAF4DEC434F5DDC4A3
:1010D00035F534C5F6F435C5F7F4000EF86E0800A2
:1010E000F550580AD8A439D02CC5D9F42DC5DAF456
:1010F000DFC42EF5020EDE26DFC42FF5000EDD2242
:101100002EC5D9F42FC5DAF4DEC430F5DDC431F5CF
:10111000010E34242E6E000E35202F6E2AC5D9F410
:101120002BC5DAF42EC5DEF42FC5DDF40BD028C5AF
:101130001BF529C51CF530C51DF531C51EF516EC8E
:1011400091F0120034C5F6F435C5F7F4000EF86ED0
:101150000800F550580AD8B4EAD7366A2AC5D9F437
:101160002BC5DAF4DEC4F6F4DDC4F7F4000EF86E35
:101170000800F550730AD8A40AD02AC5D9F42BC5A3
:10118000DAF4DE2A000EDD22010E366E44D02AC5C6
:10119000D9F42BC5DAF4DEC4F6F4DDC4F7F4000E9E
:1011A000F86E0800F5506C0AD8A435D02AC5D9F4D9
:1011B0002BC5DAF4DEC42EF5DDC42FF5010E2E2684
:1011C000000E2F222EC5F6F42FC5F7F4000EF86E90
:1011D0000800F5506C0AD8A41ED02AC5D9F42BC536
:1011E000DAF4DEC42EF5DDC42FF5020E2E26000E35
:1011F0002F222EC5F6F42FC5F7F4000EF86E080066
:10120000F550730AD8A407D0030E2AC5D9F42BC50C
:10121000DAF4DE26B7D73650D8B41BD028C50BF584
:1012200029C50CF52CC5D9F42DC5DAF4DFC42EF58B
:10123000020EDE26DFC42FF5000EDD222EC5D9F406
:101240002FC5DAF4DEC40DF5DDC40EF5A1EC8EF089
:1012500012002AC5D9F42BC5DAF4DEC4F6F4DDC4D5
:10126000F7F4000EF86E0800F550250AD8A412D045
:101270002AC5D9F42BC5DAF4DE2A000EDD22000ED1
:10128000036E250E026E28C504F529C505F578EC18
:1012900092F012002AC5D9F42BC5DAF4DE2A000E2A
:1012A000DD2212002AC5D9F42BC5DAF4DEC4F6F427
:1012B000DDC4F7F4000EF86E0800F550026E036A04
:1012C00028C504F529C505F578EC92F0E3D7000EA2
:1012D0005A6E000E596E49C50CF54AC50DF5A5ECC0
:1012E00094F0050167516811D8A405D0000E566E20
:1012F0001F0E556E04D067C555F568C556F5000E2E
:101300005C6E000E5B6EBDD049C503F54AC504F5A1
:1013100036EC90F003C55DF504C55EF55D2811E17E
:101320005E28D8A40ED0050167516811D8A404D056
:101330005B505C10D8A405D05DC549F55EC54AF583
:1013400012002D0E5D185E10D8B405D02B0E5D185E
:101350005E10D8A412D05CBE87D05C5003E15B0461
:10136000D8A082D05DC501F55EC502F549C503F57B
:101370004AC504F513EC93F094D0300E5D185E105E
:10138000D8A43AD0710E5B24D96E050E5C20DA6EBB
:101390005DC5DFF45B4A5C2A0501634B642B49C5DC
:1013A00003F54AC504F536EC90F003C55DF504C5B8
:1013B0005EF5580E5D185E10D8B405D0780E5D1835
:1013C0005E10D8A409D059505A10D8A4CBD75BC509
:1013D00059F55CC55AF548D05D2803E15E28D8B4BC
:1013E00050D05DC501F55EC502F549C503F54AC596
:1013F00004F513EC93F045D05DC54DF5D00E4D26A8
:10140000090E4D6431D05DC54DF5200E4D129F0E75
:101410004D26050E4D6428D05D2803E15E28D8B422
:101420000AD05DC501F55EC502F549C503F54AC59B
:1014300004F513EC93F059505A10D8B432D0FF0E83
:101440005B244D6EFF0E5C204E6E59504D1829E105
:101450005A504E18D8A425D05B06D8A05C060501CA
:101460006307D8A064071DD0710E5B24D96E050EEA
:101470005C20DA6E5DC5DFF45B4A5C2A0501634BD4
:10148000642B55505B5C5C50800A4D6E5650800A50
:101490004D58D8B006D05C5004E11F0E5B5CD8A05C
:1014A00033D7710E5B24D96E050E5C20DA6EDF6ACD
:1014B000710E196E050E1A6E570E1B6E050E1C6E00
:1014C000000E1E6E100E1D6E000E1F6E13EC86F0C9
:1014D00019C54DF51AC54EF51BC54FF51CC550F580
:1014E0001DC551F51EC552F51FC553F520C554F550
:1014F0004BC5D9F44CC5DAF44DC5DEF44EC5DEF467
:101500004FC5DEF450C5DEF451C5DEF452C5DEF43D
:1015100053C5DEF454C5DEF4050169516A11D8A43F
:1015200014D05B505C10D8B410D0710E571804E181
:10153000050E5818D8B409D07051D8A402D0010EA5
:1015400001D0000E496E4A6A1200FF0E4A6EFE0E6E
:10155000496E1200A50E3F6EFF0E406EBA0E416E30
:10156000FD0E426E56EC95F0F00E3F6EFF0E406E93
:1015700056EC95F07DEC95F049EC94F0C60E3F6E7C
:10158000FE0E406E56EC95F0F30E496EFF0E4A6E5D
:1015900014EC94F049C550F54AC551F5C90E5024D4
:1015A000526EFF0E5120536EBF9A550EE82EFED795
:1015B0000000C088000E0501B26F000EB16F06D0AA
:1015C0005F0EADEC95F00501B14BB22B52C54EF557
:1015D00053C54FF54E3A4F3AF00E4F164E500F0B83
:1015E0004F12F00E4E164E50B15D4F50B259D8A06A
:1015F000E7D7CB0E3F6EFF0E406E56EC95F0FC0E1B
:101600003F6EFF0E406E56EC95F0000E0501B26F76
:10161000000EB16F95D0B1C54EF53F0E4E16D8A451
:1016200003D02E0EADEC95F0000E0501B125D96E5C
:101630001D0EB221DA6EDF50D8B480D0C96AB1C5B0
:10164000C1F4B2C54EF50F0E4E16C050F00B4E1041
:10165000C06E550EE82EFED70000BF84550EE82E52
:10166000FED70000000E0501B125D96E1D0EB22176
:10167000DA6EDF50C16E550EE82EFED70000C08C2A
:10168000BF80C08A69EC95F0C09AC09CBF90550E8F
:10169000E82EFED70000C968BF8A550EE82EFED797
:1016A0000000D1C454F5000E0501B125D96E1D0E00
:1016B000B221DA6E5450DE18D8B43ED0F00E3F6E30
:1016C000FF0E406E56EC95F05B0E3F6EFF0E406EC7
:1016D00056EC95F0F00E3F6EFF0E406E56EC95F016
:1016E000960E3F6EFD0E406EB1C541F5B2C542F596
:1016F000000E0501B125D96E1D0EB221DA6EDF5044
:101700004E6E4E50436E446A54C545F5466A56ECDB
:1017100095F0F00E3F6EFF0E406E56EC95F0F20E17
:101720003F6EFE0E406E56EC95F0F00E3F6EFF0ED3
:10173000406E56EC95F026D0BF9ABF94B14BB22BB9
:1017400052C54EF553C54FF50A0ED8904E364F365A
:10175000E82EFBD74E50B15D4F50B259D8A05BD7A1
:10176000F00E3F6EFF0E406E56EC95F0220E3F6E6F
:10177000FF0E406E56EC95F0F00E3F6EFF0E406E81
:1017800056EC95F07DEC95F0F00E3F6EFF0E406E3E
:1017900056EC95F01200A50E3F6EFF0E406E680EDF
:1017A000416EFF0E426E56EC95F0F00E3F6EFF0E4E
:1017B000406E56EC95F0000E0501B86F000EB76F45
:1017C0008C0E3F6EFF0E406E56EC95F0000E05013C
:1017D000C06F000EBF6FE30E3F6EFF0E406EBFC5C1
:1017E00041F5C0C542F556EC95F00501BF4BC02B45
:1017F000C05104E1100EBF5DD8A0EDD7D10E3F6EF1
:10180000FF0E406E56EC95F0F00E3F6EFF0E406EF0
:1018100056EC95F0100E0501B725B96F000EB821F2
:10182000BA6FB7C5BDF5B8C5BEF5A0D0930E3F6E73
:10183000FF0E406EBDC54EF5BEC54FF54E3A4F3A50
:10184000F00E4F164E500F0B4F12F00E4E164EC5A7
:1018500041F54FC542F556EC95F0000E0501C06FFD
:10186000000EBF6FB50E3F6EFD0E406EBDC54EF54E
:10187000BEC54FF54E3A4F3AF00E4F164E500F0B75
:101880004F12F00E4E16000E4E24506E1D0E4F20BD
:10189000516EBF515024D96EC0515120DA6EDF50C5
:1018A000526E5250416E426A56EC95F00F0E050191
:1018B000BF19C011D8B404D0000EB46F2C0E03D0E1
:1018C000000EB46F200EB36FB351ADEC95F005016F
:1018D000BF4BC02BC05104E1100EBF5DD8A0C2D7D2
:1018E000000EC06F000EBF6FBDC54EF5BEC54FF5F3
:1018F0004E3A4F3AF00E4F164E500F0B4F12F00E5D
:101900004E16000E4E24506E1D0E4F20516EBF51CC
:101910005024D96EC0515120DA6EDF50526E5250B1
:10192000BB6FBC6BBBC54EF5E00E4E265E0E4E6423
:1019300005D0000EB66F2E0EB56F03D0BBC5B5F542
:10194000B66BB551ADEC95F00501BF4BC02BC05146
:1019500004E1100EBF5DD8A0C7D7F00E3F6EFF0E9A
:10196000406E56EC95F00501BD4BBE2BB951BD5DE7
:10197000BA51BE59D8A05AD7BA5104E1800EB95D08
:10198000D8A00DD06D0E3F6EFE0E406E56EC95F059
:10199000F70E496EFF0E4A6E14EC94F00CD05E0EFA
:1019A0003F6EFE0E406E56EC95F0F60E496EFF0E41
:1019B0004A6E14EC94F049C5BBF54AC5BCF5450E1A
:1019C0000501BB19BC11D8B41200B9C5B7F5BAC529
:1019D000B8F5F6D6080E0001B16FB3EC95F0C8EC7F
:1019E00095F0C0EC95F0BCEC95F0D4EC95F0D0EC13
:1019F00095F0CCEC95F0C4EC95F0B8EC95F093EC48
:101A000095F09AEC95F0010ED56FA00ED46FD189A8
:101A1000D18BD28F8CEC95F085EC95F0030E706E27
:101A2000000E736E110E726E746A800E796E000E67
:101A30007B6E090E7A6E000E7D6E090E7C6EB39C75
:101A4000B39E76907692800E786E100E03011A6F18
:101A5000440E1B6F75EC95F003011F6B1E83000E87
:101A60001D6F000E1C6FB1981E81060E266F400E72
:101A7000246FC30E236FB196A186248FD68E7DEC82
:101A800095F07D0E3F6EFF0E406E56EC95F04C0EBD
:101A90003F6EFD0E406E56EC95F0F00E3F6EFF0E61
:101AA000406E56EC95F0AF0E3F6EFF0E406E200E6E
:101AB000416EFE0E426E56EC95F0F00E3F6EFF0E3C
:101AC000406E56EC95F0A10E3F6EFF0E406E410E3B
:101AD000416EFE0E426E56EC95F0F00E3F6EFF0E1C
:101AE000406E56EC95F0B60E3F6EFF0E406EA30EA4
:101AF000416EFC0E426E56EC95F0F00E3F6EFF0EFE
:101B0000406E56EC95F0A80E3F6EFF0E406E680ECC
:101B1000416EFF0E426E56EC95F0F00E3F6EFF0EDA
:101B2000406E56EC95F0C40E3F6EFF0E406EBA0E3E
:101B3000416EFD0E426E56EC95F0F00E3F6EFF0EBC
:101B4000406E56EC95F0BD0E3F6EFF0E406E940E4B
:101B5000416EFE0E426E56EC95F0F00E3F6EFF0E9B
:101B6000406E56EC95F0130E3F6EFF0E406E56EC35
:101B700095F09A0E496EFF0E4A6E14EC94F049C52A
:101B8000E2F54AC5E3F512D0F3EC8DF08CD7C8EC42
:101B900092F089D7ABEC90F086D7CBEC8BF083D763
:101BA000AAEC8AF080D72FEC8FF07DD7E2C5E0F564
:101BB000E3C5E1F50501E151000AD8A474D7E0516D
:101BC000430AD8B4E4D7070AD8B4E7D7080AD8B488
:101BD000DBD71E0AD8B4DED7040AD8B4E4D7010A8A
:101BE000D8B4DED760D7000E0501B26F000EB16F1A
:101BF00009D0000EB125D96E1D0EB221DA6EDF6A52
:101C0000B14BB22B080EB25DD8A0F3D7DB6BA50E9B
:101C10003F6EFF0E406E200E416EFE0E426E56EC81
:101C200095F0F00E3F6EFF0E406E56EC95F0DD0E17
:101C30003F6EFF0E406E56EC95F0F00E3F6EFF0EBD
:101C4000406E56EC95F0A7EC95F03A0E0118021094
:101C5000D8A4F9D7D70E0501D56FFF0ED66FDE0ECB
:101C6000D76F050ED86F43EC95F0EC0ED56FFF0ED5
:101C7000D66FB10ED76F050ED86F43EC95F0D70E27
:101C8000D56FFF0ED66FDF0ED76F050ED86F43EC02
:101C900095F0DF51D8B41ED0010EDB6F1BD0D70EEC
:101CA000D56FFF0ED66FDD0ED76F050ED86F43ECE4
:101CB00095F0DB05D8B40ED0080EB25DD8B00AD0CE
:101CC000000EB125D96E1D0EB221DA6EDDC5DFF42E
:101CD000B14BB22BDE07DE29D8A4E1D7D70ED56FE2
:101CE000FF0ED66FDC0ED76F050ED86F43EC95F064
:101CF0002E0EADEC95F00501DF05D8A4A4D7DE517A
:101D0000D8A404D0B151B211D8B49DD7F00E3F6E13
:101D1000FF0E406E56EC95F078EC94F03F0E3F6E5F
:101D2000FF0E406E56EC95F0F00E3F6EFF0E406ECB
:101D300056EC95F0F00E3F6EFF0E406E56EC95F0AF
:101D400012000DC515F50EC516F515501610D8A4C0
:101D500004D0850E156EFF0E166E000E186E000E66
:101D6000176E02D0174A182A175015240F6E1850F4
:101D70001620106E0FC5F6F410C5F7F4000EF86EBD
:101D8000250EF76403D00800F55005D0F6C4E1F441
:101D9000F7C4E2F4E7500009D8A4E4D717C511F559
:101DA00018C512F56BC513F56CC514F55FA00DD001
:101DB00034D0000E036E200E026E0BC504F50CC568
:101DC00005F578EC92F0174A182A1350175C185052
:101DD000800A0F6E1450800A0F58D8B01ED0E9D771
:101DE00015C5F6F416C5F7F4000EF86E250EF76467
:101DF00003D00800F55005D0F6C4E1F4F7C4E2F4CE
:101E0000E7500F6E0F50026E036A0BC504F50CC548
:101E100005F578EC92F0154A162A1106D8A012069C
:101E20001128DEE11228D8A4DBD75FA012000CD065
:101E3000000E036E200E026E0BC504F50CC505F5F1
:101E400078EC92F0174A182A1350175C1850800A41
:101E50000F6E1450800A0F58D8B01200E9D7A50EA3
:101E60003F6EFF0E406E940E416EFE0E426E56ECBB
:101E700095F0F00E3F6EFF0E406E56EC95F0BFA24F
:101E800020D0FE0E3F6EFD0E406E56EC95F0F00E2B
:101E90003F6EFF0E406E56EC95F0BFB2FED7740E4B
:101EA0003F6EFF0E406E56EC95F0F00E3F6EFF0E4B
:101EB000406E56EC95F0F00E3F6EFF0E406E56EC05
:101EC00095F0C088C08AC08CBF80FE0E3F6EFC0EAD
:101ED000406E56EC95F0F00E3F6EFF0E406E56ECE5
:101EE00095F0270E3F6EFD0E406E56EC95F0F00E0D
:101EF0003F6EFF0E406E56EC95F0D30E3F6EFC0E1B
:101F0000406E56EC95F0F90E496EFF0E4A6E14ECD9
:101F100094F049C54EF54AC54FF5C098C09AC09C8B
:101F2000BF90530E4E184F10D8A41200710E3F6E82
:101F3000FD0E406E56EC95F0F00E3F6EFF0E406EBB
:101F400056EC95F0DC0E3F6EFD0E406E56EC95F0B3
:101F5000F00E3F6EFF0E406E56EC95F0DC0E3F6EBD
:101F6000FE0E406E56EC95F0F70E496EFF0E4A6E6F
:101F700014EC94F01200000E076E000E066E056A57
:101F800002D0014A022A01C5F6F402C5F7F4000E98
:101F9000F86E0800F550200AD8B4F3D701C5F6F45E
:101FA00002C5F7F4000EF86E0800F5C403F5F70E4D
:101FB0000326040E0364E5D701C5F6F402C5F7F461
:101FC000000EF86E0800F5502D0AD8A405D0010EB9
:101FD000056E014A022A27D001C5F6F402C5F7F4BE
:101FE000000EF86E0800F5502B0AD8B4F2D71BD0BB
:101FF0000A0E0602F3C403F5F4C404F50702F35015
:10200000042601C5F6F402C5F7F4000EF86E0800C8
:10201000F550035E000E045A300E0324066E000EC7
:102020000420076ED6D701C5F6F402C5F7F4000EFA
:10203000F86E0800F5C403F5D00E0326090E0364FC
:10204000D7D70550D8A40DD006C503F507C504F5AC
:10205000031E041E034A042A03C501F504C502F544
:10206000120006C501F507C502F512000350041061
:10207000D8A416D005016F51D8A407D0A7EC95F0CD
:1020800001C50AF502C50BF561D06F07600E6F251B
:10209000D96EDA6A050EDA22DF50056E055026D0B9
:1020A00020EE07F00350D9260450DA22DE50DE106D
:1020B000D8B41FD020EE07F00350D9260450DA22FE
:1020C000DE06000EDD5ADEC405F5DDC406F505505A
:1020D0000324076E06500420086E040E0724D96EF0
:1020E000000E0820DA6EDF50096E09500A6E0B6A86
:1020F0002DD020EE02F00350D9260450DA22DEC49F
:1021000005F5DDC406F503C5D9F404C5DAF4DEC46B
:1021100007F5DDC408F505500724D96E06500820E0
:10212000DA6EDF50096E09500A6E0B6A0A500B1006
:10213000D8A403D00A680B6809D020EE02F003503F
:10214000D9260450DA22DE2A000EDD220AC503F564
:102150000BC504F51200A50E3F6EFF0E406EA30ED8
:10216000416EFC0E426E56EC95F0F00E3F6EFF0E87
:10217000406E56EC95F049EC94F07DEC95F0550EE0
:10218000E82EFED70000C088000E0501B26F000ED9
:10219000B16F25D0C96AB1C5C1F4B2C54BF50F0EF8
:1021A0004B16C050F00B4B10C06E550EE82EFED7EC
:1021B0000000BF84550EE82EFED70000C968550EFA
:1021C000E82EFED70000000E0501B125D96E1D0EC8
:1021D000B221DA6ED1C4DFF4BF94B14BB22B080E3A
:1021E000B25DD8A0D7D77DEC95F078EC94F0310EA5
:1021F0003F6EFF0E406E56EC95F0F00E3F6EFF0EF8
:10220000406E56EC95F0AD0E3F6EFE0E406E56ECF5
:1022100095F0F00E3F6EFF0E406E56EC95F0F00E0E
:102220003F6EFF0E406E56EC95F01200010E226ECE
:102230006BC523F56CC524F5000E276E1F0E266EA8
:102240000501B06B28D02606D8A027061D500F0B1D
:10225000256E0A0E256002D0300E01D0370E2526DD
:10226000910E2624D96E050E2720DA6E25C5DFF4DF
:10227000226A2306D8A024061DC51FF51EC520F519
:10228000040E216ED89020321F32212EFBD71FC59D
:102290001DF520C51EF527BE16D0275004E1020EFD
:1022A000265CD8A010D01D501E10D8A4CCD7225028
:1022B000D8A4C9D724BE07D0245003E12304D8A052
:1022C00002D05FB2C0D71BC512F51CC513F5910E25
:1022D0002624146E050E2720156E23C516F524C579
:1022E00017F5DAEC93F01200000E096E000E086E7E
:1022F00001C5D9F402C5DAF4DEC4F6F4DDC4F7F49E
:10230000000EF86E0800F5502A0AD8A432D001C594
:10231000D9F402C5DAF4DE2A000EDD2203C5D9F4B1
:1023200004C5DAF4DFC405F5020EDE26DFC406F5C7
:10233000000EDD2205C5D9F406C5DAF4DEC408F5C1
:10234000DDC409F527D00A0E0802F3C405F5F4C46C
:1023500006F50902F350062607500524086E000E04
:102360000620096E01C5D9F402C5DAF4DE2A000E92
:10237000DD2201C5D9F402C5DAF4DEC4F6F4DDC409
:10238000F7F4000EF86E0800F550D00F076E090E36
:102390000764D9D708C501F509C502F5120005067D
:1023A000D8A0060605280FE10628D8A40CD0000EF8
:1023B000026E000E016E1200014A022A034A042A2C
:1023C0000506D8A0060601C5F6F402C5F7F4000E0E
:1023D000F86E0800F5500009D8B423D003C5F6F410
:1023E00004C5F7F4000EF86E0800F5500009D8B4E3
:1023F00018D005500610D8B414D001C5F6F402C5A3
:10240000F7F4000EF86E0800F5C407F503C5F6F4FE
:1024100004C5F7F4000EF86E0800F5500718D8B49C
:10242000CBD701C5F6F402C5F7F4000EF86E08002C
:10243000F5C407F503C5F6F404C5F7F4000EF86E0D
:102440000800F550075C016E026AD8A0020612006F
:10245000CBC5D3F5CCC5D4F5000E646F000E636F09
:1024600063C565F564C566F569C5CFF56AC5D0F580
:102470001DD0000E6A6F000E696FC9C5B3F5CAC5DD
:10248000B4F5D30EB56F050EB66FCDC5B7F5CEC595
:10249000B8F500EC84F0B3C5D1F5B4C5D2F50501AB
:1024A000D2BF0FD0D1516527D2516623D3C5F6F4E0
:1024B000D4C5F7F4000EF86E0800F5500009D8A452
:1024C000D8D7CFC569F5D0C56AF5D1290CE1D22995
:1024D000D8A409D065516611D8A405D0D1C5C9F5D5
:1024E000D2C5CAF5120065C5C9F566C5CAF51200A0
:1024F00004500510D8B404D004500510D8A404D05A
:102500000250ADEC95F0120020EE09F00450D926EF
:102510000550DA22DE50DE10D8B416D020EE09F0D5
:102520000450D9260550DA2210EE02F00450E126BC
:102530000550E222DE50E65CE650800A0A6EDE506C
:10254000800A0A58D8B0120020EE02F00450D926B2
:102550000550DA22DEC406F5DDC407F504C5D9F45A
:1025600005C5DAF4DEC408F5DDC409F50650082413
:10257000D96E07500920DA6E02C5DFF420EE02F0B2
:102580000450D9260550DA22DE2A000EDD22120080
:10259000A50E3F6EFF0E406E410E416EFE0E426E66
:1025A00056EC95F0F00E3F6EFF0E406E56EC95F037
:1025B000000E0501B26F000EB16F10D0000EB125F4
:1025C000D96E150EB221DA6E000EB125E16E1D0E28
:1025D000B221E26EDFC4E7F4B14BB22B080EB25D5C
:1025E000D8A0ECD778EC94F04D0E3F6EFF0E406E05
:1025F00056EC95F0F00E3F6EFF0E406E56EC95F0E7
:10260000AD0E3F6EFE0E406E56EC95F0F00E3F6E36
:10261000FF0E406E56EC95F0F00E3F6EFF0E406ED2
:1026200056EC95F01200012803E10228D8B41200FC
:1026300003500410D8A40FD0030E05016F19D8B4AD
:102640001200600E6F25D96EDA6A050EDA2201C516
:10265000DFF46F2B120020EE07F00350D926045050
:10266000DA22030EDE18DE10D8B4120020EE07F0D6
:102670000350D9260450DA22DEC405F5DDC406F580
:1026800005500324076E06500420086E040E07242C
:10269000D96E000E0820DA6E01C5DFF420EE07F0D7
:1026A0000350D9260450DA22DE2A000EDD22120061
:1026B00021EE11F1070EDE6AE806FDE201A010D05E
:1026C000095011260A5012220B5013220C501422CA
:1026D0000D5015220E5016220F501722105018229E
:1026E000D89009360A360B360C360D360E360F36B4
:1026F0001036D890083207320632053204320332DF
:1027000002320132015002100310041005100610AD
:1027100007100810D8A4D2D711C501F512C502F5CB
:1027200013C503F514C504F515C505F516C506F55D
:1027300017C507F518C508F51200000EF66E000E55
:10274000F76E010EF86E05EE00F112EE00F00900D2
:10275000F5C4EEF4E550E150FAE1E250F8E1420E42
:10276000F66E2B0EF76E010EF86E01EEE4F110EE30
:102770000CF00900F5C4EEF4E550E150FAE107EE83
:1027800000F112EE00F0EE6AE550E150FCE1E2509B
:10279000FAE101EE60F1530EEE6AE806FDE15F6AD0
:1027A0000401080E5D6F000E5E6F000E5F6F00018A
:1027B000EAEF8CF05FA00AD014C50BF515C50CF537
:1027C00012C50DF513C50EF512EC95F017AE04D039
:1027D000000E176E000E166E000E1A6E000E196EA9
:1027E0000CD0000E036E200E026E12C504F513C548
:1027F00005F578EC92F0194A1A2A1650195C1A500D
:10280000800A186E1750800A1858D8A0EAD75FB00F
:10281000120014C50BF515C50CF512C50DF513C541
:102820000EF512EC95F01200A7EC95F001C54CF5F1
:1028300002C54DF54CC54BF5200E4B129F0E4B2695
:102840001A0E4B6004D05F0E4C16000E4D1649C593
:1028500001F54AC502F54CC503F54DC504F5F0EC8C
:1028600094F001500210D8B4DFD74C50ADEC95F085
:10287000F00E3F6EFF0E406E56EC95F0F00E3F6E80
:10288000FF0E406E56EC95F04CC549F54DC54AF526
:102890001200BFB21200790E3F6EFE0E406E56EC73
:1028A00095F0F00E3F6EFF0E406E56EC95F0BFA215
:1028B000FED7290E4A6E960E496E7F0EE82EFED781
:1028C000492EFCD74A2EFAD70000740E3F6EFF0E39
:1028D000406E56EC95F0F00E3F6EFF0E406E56ECDB
:1028E00095F0F00E3F6EFF0E406E56EC95F0120024
:1028F000080E4A6E000E496E09D0000E4924D96EAA
:102900001D0E4A20DA6EDF50D8A407D04906D8A0A1
:102910004A0649504A10D8A4F0D727EE00F1DF50FC
:10292000D8B402D0494A4A2A030E3F6EFF0E406EC9
:1029300049C541F54AC542F556EC95F0F00E3F6E9B
:10294000FF0E406E56EC95F0120017D0200E0F18B7
:102950001010D8B412D00FC50EF5F70E0E26040EC7
:102960000E640BD00FC501F510C502F50CC503F5BB
:102970000DC504F513EC93F012000CC503F50DC55D
:1029800004F536EC90F003C50FF504C510F50F28DB
:10299000DDE11028D8B41200D9D739C53DF53AC5C4
:1029A0003EF50ED037C528F538C529F53D0E2A6EFF
:1029B000050E2B6E3BC52CF53CC52DF50BEC88F0B8
:1029C0003DC5F6F43EC5F7F4000EF86E0800F5506C
:1029D0000009D8A4E7D7000E386E000E376E12003B
:1029E00001C5F6F402C5F7F4000EF86E0800F550C4
:1029F0000318D8A405D001C501F502C502F51200DF
:102A000001C5F6F402C5F7F4014A022A000EF86E79
:102A10000800F5500009D8A4E3D7000E016E000E9F
:102A2000026E1200000E116E000E106E0BD00FC55C
:102A300002F5036A0DC504F50EC505F578EC92F0B4
:102A4000104A112A10500B24D96E11500C20DA6E46
:102A5000DF500F6E0F50D8B41200E9D7B196B19A7B
:102A600003011E91200E1C5D4E0E1D59D8A0B1B859
:102A700002D0BF9201D0BF82000E1D6F000E1C6FEE
:102A8000B1981E811100D70ED96F050EDA6F000EB6
:102A9000C96F000ECA6FD5C5CBF5D6C5CCF5D90E1A
:102AA000CD6F050ECE6F28EC92F01200410E476EEE
:102AB000050E486E000E376E000E386E3FC539F5B4
:102AC00040C53AF5470E3B6E050E3C6ECDEC94F0DA
:102AD0001200B19E3C0E0301196FB00E186F1A8FD1
:102AE000B1AEFED703011A9F12000401109F118F8F
:102AF000C88E170E0201426F1200C09CBF90BF9497
:102B0000BF8AC098C09AC968120004010899C79882
:102B10001B0E02010D6F120004010897C7961A0ED2
:102B200002010C6F1200009DBE8CC69C260E020195
:102B3000076F12000401009FC68E070E0201766F18
:102B4000120094FEBAFD68FFA3FC41FE20FEB7A070
:102B5000FED7C7C201F5026A1200016EB7A2FED706
:102B600001C5C9F2120004010891BF90C79012007C
:102B7000109DC09CC89C1200089BBF8AC79A120077
:102B80000895BF84C7941200109BC09AC89A12007F
:102B90000893BF92C79212001099C098C89812006B
:102BA000186BC16AC9681200106BC06AC86A12004B
:022BB000110012
:020000040020DA
:10000000FFFFFFFFFFFFFFFFFFFFFFFFFFFFFFFF00
:10001000FFFFFFFFFFFFFFFFFFFFFFFFFFFFFFFFF0
:10002000FFFFFFFFFFFFFFFFFFFFFFFFFFFFFFFFE0
:10003000FFFFFFFFFFFFFFFFFFFFFFFFFFFFFFFFD0
:020000040030CA
:080000008CFFFFF79FFFFFFFDB
:01000900FFF7
:00000001FF
